:020000040800F2
:1000000000040020450100081D030008BB02000891
:10001000190300088D0100089D040008000000007D
:100020000000000000000000000000004D03000878
:1000300091010008000000001F03000839040008B7
:100040005F0100085F0100085F0100085F01000810
:100050005F0100085F0100085F0100085F01000800
:100060005F0100085F0100085F0100085F010008F0
:100070005F0100085F0100085F0100085F010008E0
:100080005F0100085F0100085F0100085F010008D0
:100090005F0100085F0100085F0100085F010008C0
:1000A0005F0100085F0100085F0100085F010008B0
:1000B0005F0100085F0100085F0100085F010008A0
:1000C0005F0100085F0100085F0100085F01000890
:1000D0005F0100085F0100085F0100085F01000880
:1000E0005F0100085F0100085F0100085F01000870
:1000F0005F0100085F0100085F0100085F01000860
:100100005F0100085F0100085F0100085F0100084F
:100110005F0100085F0100085F0100085F0100083F
:100120005F0100085F0100085F0100085F0100082F
:10013000DFF80CD000F018F800480047C1040008B0
:10014000000400200648804706480047FEE7FEE717
:10015000FEE7FEE7FEE7FEE7FEE7FEE7FEE7FEE777
:100160003D04000831010008064C074D06E0E06838
:1001700040F0010394E8070098471034AC42F6D3EE
:10018000FFF7DAFFF80400080805000800BFFEE7E3
:10019000704700E0401E0028FCD170472DE9F04177
:1001A000024600250026002000230024002791F8A5
:1001B00003C00CF00F0591F803C00CF0100CBCF15B
:1001C000000F03D091F802C04CEA050591F800C079
:1001D000BCF1000F31D0146800202BE04FF0010C6F
:1001E0000CFA00F3B1F800C00CEA03069E4220D1DD
:1001F00083004FF00F0C0CFA03F7BC4305FA03FC25
:100200004CEA040491F803C0BCF1280F06D14FF06A
:10021000010C0CFA00FCC2F814C00AE091F803C00B
:10022000BCF1480F05D14FF0010C0CFA00FCC2F8EC
:1002300010C0401C0828D1D31460B1F800C0BCF134
:10024000FF0F34DD546800202EE000F1080C4FF061
:10025000010808FA0CF3B1F800C00CEA03069E424C
:1002600021D183004FF00F0C0CFA03F7BC4305FAC1
:1002700003FC4CEA040491F803C0BCF1280F05D13B
:1002800000F1080C08FA0CF8C2F8148091F803C0C9
:10029000BCF1480F07D100F1080C4FF0010808FA33
:1002A0000CF8C2F81080401C0828CED35460BDE87A
:1002B000F081416170470161704700BFFEE70000B7
:1002C00008B50121082000F02BF80120ADF800004E
:1002D00010208DF8030003208DF8020069460248C3
:1002E000FFF75CFF08BD0000000C014008B50121CC
:1002F000042000F015F84FF48070ADF800001820CD
:100300008DF8030003208DF8020069460148FFF7CD
:1003100045FF08BD0008014000BFFEE77047704779
:1003200029B1064A92690243044B9A6104E0034AE8
:1003300092698243014B9A617047000000100240AD
:100340000149C8717047000000100240704710B5A5
:1003500000F002F810BD00000CB5002001900090E4
:100360003348006840F480303149086000BF3048AD
:10037000006800F4003000900198401C0190009843
:1003800018B90198B0F5A06FF1D12948006800F4C0
:10039000003010B10120009001E000200090009892
:1003A000012843D12348006840F01000214908602B
:1003B0000846006820F0030008600846006840F026
:1003C000020008601A4840681949486008464068B9
:1003D00048600846406840F48060486008464068CD
:1003E00020F47C1048600846406840F4E8104860FB
:1003F0000846006840F08070086000BF0C48006844
:1004000000F000700028F9D00948406820F003008F
:10041000074948600846406840F00200486000BF55
:100420000348406800F00C000828F9D10CBD00001A
:1004300000100240002002407047000010B5134831
:10044000006840F001001149086008464068104902
:1004500008400E494860084600680E4908400B49AC
:1004600008600846006820F480200860084640685C
:1004700020F4FE0048604FF41F008860FFF767FF1C
:100480004FF000600449086010BD000000100240F9
:100490000000FFF8FFFFF6FE08ED00E000BFFEE7FA
:1004A00002E008C8121F08C1002AFAD1704770473D
:1004B000002001E001C1121F002AFBD1704700009B
:1004C000FFF714FF0420FFF73BFFFFF7F9FE0DE0F5
:1004D00001210748FFF7EFFE0648FFF75AFE01210A
:1004E0000348FFF7E6FE0348FFF753FEF0E700007E
:1004F000000C0140FFFF0F0008050008000000206D
:0805000000040000B004000833
:0400000508000131BD
:00000001FF
